{
  "contractName": "LifeMesh",
  "abi": [
    {
      "constant": false,
      "inputs": [
        {
          "name": "index",
          "type": "uint256"
        },
        {
          "name": "size",
          "type": "string"
        }
      ],
      "name": "updateOfferSizeByID",
      "outputs": [
        {
          "name": "success",
          "type": "bool"
        }
      ],
      "payable": false,
      "stateMutability": "nonpayable",
      "type": "function"
    },
    {
      "constant": false,
      "inputs": [
        {
          "name": "index",
          "type": "uint256"
        },
        {
          "name": "materialType",
          "type": "string"
        }
      ],
      "name": "updateNeedMaterialTypeByID",
      "outputs": [
        {
          "name": "success",
          "type": "bool"
        }
      ],
      "payable": false,
      "stateMutability": "nonpayable",
      "type": "function"
    },
    {
      "constant": true,
      "inputs": [],
      "name": "createUniqueIDString",
      "outputs": [
        {
          "name": "uniqueIDString",
          "type": "string"
        }
      ],
      "payable": false,
      "stateMutability": "view",
      "type": "function"
    },
    {
      "constant": false,
      "inputs": [
        {
          "name": "index",
          "type": "uint256"
        },
        {
          "name": "location",
          "type": "string"
        }
      ],
      "name": "updateProviderLocation",
      "outputs": [
        {
          "name": "success",
          "type": "bool"
        }
      ],
      "payable": false,
      "stateMutability": "nonpayable",
      "type": "function"
    },
    {
      "constant": true,
      "inputs": [
        {
          "name": "index",
          "type": "uint256"
        }
      ],
      "name": "getNeedByID",
      "outputs": [
        {
          "name": "id",
          "type": "uint256"
        },
        {
          "name": "ownerId",
          "type": "uint256"
        },
        {
          "name": "ownerName",
          "type": "string"
        },
        {
          "name": "materialType",
          "type": "string"
        },
        {
          "name": "quantity",
          "type": "uint256"
        },
        {
          "name": "size",
          "type": "string"
        },
        {
          "name": "long",
          "type": "string"
        },
        {
          "name": "lat",
          "type": "string"
        }
      ],
      "payable": false,
      "stateMutability": "view",
      "type": "function"
    },
    {
      "constant": true,
      "inputs": [
        {
          "name": "id",
          "type": "uint256"
        }
      ],
      "name": "recipientDoesExist",
      "outputs": [
        {
          "name": "recExists",
          "type": "bool"
        }
      ],
      "payable": false,
      "stateMutability": "view",
      "type": "function"
    },
    {
      "constant": true,
      "inputs": [
        {
          "name": "index",
          "type": "uint256"
        }
      ],
      "name": "getOfferByID",
      "outputs": [
        {
          "name": "id",
          "type": "uint256"
        },
        {
          "name": "ownerId",
          "type": "uint256"
        },
        {
          "name": "ownerName",
          "type": "string"
        },
        {
          "name": "materialType",
          "type": "string"
        },
        {
          "name": "quantity",
          "type": "uint256"
        },
        {
          "name": "size",
          "type": "string"
        },
        {
          "name": "long",
          "type": "string"
        },
        {
          "name": "lat",
          "type": "string"
        }
      ],
      "payable": false,
      "stateMutability": "view",
      "type": "function"
    },
    {
      "constant": true,
      "inputs": [],
      "name": "recipientCount",
      "outputs": [
        {
          "name": "",
          "type": "uint256"
        }
      ],
      "payable": false,
      "stateMutability": "view",
      "type": "function"
    },
    {
      "constant": true,
      "inputs": [
        {
          "name": "id",
          "type": "uint256"
        }
      ],
      "name": "providerDoesExist",
      "outputs": [
        {
          "name": "provExists",
          "type": "bool"
        }
      ],
      "payable": false,
      "stateMutability": "view",
      "type": "function"
    },
    {
      "constant": false,
      "inputs": [
        {
          "name": "name",
          "type": "string"
        },
        {
          "name": "location",
          "type": "string"
        }
      ],
      "name": "createProvider",
      "outputs": [
        {
          "name": "providerID",
          "type": "uint256"
        }
      ],
      "payable": false,
      "stateMutability": "nonpayable",
      "type": "function"
    },
    {
      "constant": true,
      "inputs": [
        {
          "name": "index",
          "type": "uint256"
        }
      ],
      "name": "getProviderById",
      "outputs": [
        {
          "name": "idRet",
          "type": "uint256"
        },
        {
          "name": "name",
          "type": "string"
        },
        {
          "name": "location",
          "type": "string"
        }
      ],
      "payable": false,
      "stateMutability": "view",
      "type": "function"
    },
    {
      "constant": true,
      "inputs": [],
      "name": "getRecipientsIntIndexArray",
      "outputs": [
        {
          "name": "recipientArray",
          "type": "uint256[]"
        }
      ],
      "payable": false,
      "stateMutability": "view",
      "type": "function"
    },
    {
      "constant": true,
      "inputs": [],
      "name": "txCount",
      "outputs": [
        {
          "name": "",
          "type": "uint256"
        }
      ],
      "payable": false,
      "stateMutability": "view",
      "type": "function"
    },
    {
      "constant": false,
      "inputs": [
        {
          "name": "index",
          "type": "uint256"
        },
        {
          "name": "newlong",
          "type": "string"
        }
      ],
      "name": "updateLongbyNeedID",
      "outputs": [
        {
          "name": "success",
          "type": "bool"
        }
      ],
      "payable": false,
      "stateMutability": "nonpayable",
      "type": "function"
    },
    {
      "constant": false,
      "inputs": [
        {
          "name": "index",
          "type": "uint256"
        },
        {
          "name": "newlat",
          "type": "string"
        }
      ],
      "name": "updateLatbyOfferID",
      "outputs": [
        {
          "name": "success",
          "type": "bool"
        }
      ],
      "payable": false,
      "stateMutability": "nonpayable",
      "type": "function"
    },
    {
      "constant": true,
      "inputs": [],
      "name": "createUniqueIDInt",
      "outputs": [
        {
          "name": "uniqueIDInt",
          "type": "uint256"
        }
      ],
      "payable": false,
      "stateMutability": "view",
      "type": "function"
    },
    {
      "constant": false,
      "inputs": [
        {
          "name": "index",
          "type": "uint256"
        },
        {
          "name": "newlong",
          "type": "string"
        }
      ],
      "name": "updateLongbyOfferID",
      "outputs": [
        {
          "name": "success",
          "type": "bool"
        }
      ],
      "payable": false,
      "stateMutability": "nonpayable",
      "type": "function"
    },
    {
      "constant": false,
      "inputs": [
        {
          "name": "index",
          "type": "uint256"
        },
        {
          "name": "recipient",
          "type": "string"
        }
      ],
      "name": "updateTxRecipient",
      "outputs": [
        {
          "name": "success",
          "type": "bool"
        }
      ],
      "payable": false,
      "stateMutability": "nonpayable",
      "type": "function"
    },
    {
      "constant": true,
      "inputs": [
        {
          "name": "index",
          "type": "uint256"
        }
      ],
      "name": "getRecipientById",
      "outputs": [
        {
          "name": "idRet",
          "type": "uint256"
        },
        {
          "name": "name",
          "type": "string"
        },
        {
          "name": "location",
          "type": "string"
        }
      ],
      "payable": false,
      "stateMutability": "view",
      "type": "function"
    },
    {
      "constant": true,
      "inputs": [
        {
          "name": "index",
          "type": "uint256"
        }
      ],
      "name": "getTxById",
      "outputs": [
        {
          "name": "idRet",
          "type": "uint256"
        },
        {
          "name": "provider",
          "type": "string"
        },
        {
          "name": "recipient",
          "type": "string"
        },
        {
          "name": "location",
          "type": "string"
        }
      ],
      "payable": false,
      "stateMutability": "view",
      "type": "function"
    },
    {
      "constant": true,
      "inputs": [
        {
          "name": "needid",
          "type": "uint256"
        }
      ],
      "name": "needDoesExist",
      "outputs": [
        {
          "name": "needExists",
          "type": "bool"
        }
      ],
      "payable": false,
      "stateMutability": "view",
      "type": "function"
    },
    {
      "constant": true,
      "inputs": [],
      "name": "isRecipientsZeroPositionInitialized",
      "outputs": [
        {
          "name": "isInit",
          "type": "bool"
        }
      ],
      "payable": false,
      "stateMutability": "view",
      "type": "function"
    },
    {
      "constant": true,
      "inputs": [],
      "name": "providerCount",
      "outputs": [
        {
          "name": "",
          "type": "uint256"
        }
      ],
      "payable": false,
      "stateMutability": "view",
      "type": "function"
    },
    {
      "constant": false,
      "inputs": [
        {
          "name": "id",
          "type": "uint256"
        },
        {
          "name": "provider",
          "type": "string"
        },
        {
          "name": "recipient",
          "type": "string"
        },
        {
          "name": "location",
          "type": "string"
        }
      ],
      "name": "createTx",
      "outputs": [
        {
          "name": "txID",
          "type": "uint256"
        }
      ],
      "payable": false,
      "stateMutability": "nonpayable",
      "type": "function"
    },
    {
      "constant": true,
      "inputs": [
        {
          "name": "id",
          "type": "uint256"
        }
      ],
      "name": "txDoesExist",
      "outputs": [
        {
          "name": "txExists",
          "type": "bool"
        }
      ],
      "payable": false,
      "stateMutability": "view",
      "type": "function"
    },
    {
      "constant": false,
      "inputs": [
        {
          "name": "index",
          "type": "uint256"
        },
        {
          "name": "size",
          "type": "string"
        }
      ],
      "name": "updateNeedSizeByID",
      "outputs": [
        {
          "name": "success",
          "type": "bool"
        }
      ],
      "payable": false,
      "stateMutability": "nonpayable",
      "type": "function"
    },
    {
      "constant": false,
      "inputs": [],
      "name": "DataContract",
      "outputs": [],
      "payable": false,
      "stateMutability": "nonpayable",
      "type": "function"
    },
    {
      "constant": false,
      "inputs": [
        {
          "name": "index",
          "type": "uint256"
        },
        {
          "name": "quantity",
          "type": "uint256"
        }
      ],
      "name": "updateOfferQuantityByID",
      "outputs": [
        {
          "name": "success",
          "type": "bool"
        }
      ],
      "payable": false,
      "stateMutability": "nonpayable",
      "type": "function"
    },
    {
      "constant": true,
      "inputs": [],
      "name": "isNeedsZeroPositionInitialized",
      "outputs": [
        {
          "name": "isInit",
          "type": "bool"
        }
      ],
      "payable": false,
      "stateMutability": "view",
      "type": "function"
    },
    {
      "constant": false,
      "inputs": [
        {
          "name": "index",
          "type": "uint256"
        },
        {
          "name": "ownerid",
          "type": "uint256"
        },
        {
          "name": "ownerName",
          "type": "string"
        }
      ],
      "name": "updateNeedOwnerIDAndNameByID",
      "outputs": [
        {
          "name": "success",
          "type": "bool"
        }
      ],
      "payable": false,
      "stateMutability": "nonpayable",
      "type": "function"
    },
    {
      "constant": false,
      "inputs": [
        {
          "name": "index",
          "type": "uint256"
        },
        {
          "name": "quantity",
          "type": "uint256"
        }
      ],
      "name": "updateNeedQuantityByID",
      "outputs": [
        {
          "name": "success",
          "type": "bool"
        }
      ],
      "payable": false,
      "stateMutability": "nonpayable",
      "type": "function"
    },
    {
      "constant": true,
      "inputs": [
        {
          "name": "input",
          "type": "string"
        }
      ],
      "name": "isEmptyString",
      "outputs": [
        {
          "name": "empty",
          "type": "bool"
        }
      ],
      "payable": false,
      "stateMutability": "view",
      "type": "function"
    },
    {
      "constant": false,
      "inputs": [
        {
          "name": "index",
          "type": "uint256"
        },
        {
          "name": "materialType",
          "type": "string"
        }
      ],
      "name": "updateOfferMaterialTypeByID",
      "outputs": [
        {
          "name": "success",
          "type": "bool"
        }
      ],
      "payable": false,
      "stateMutability": "nonpayable",
      "type": "function"
    },
    {
      "constant": false,
      "inputs": [
        {
          "name": "index",
          "type": "uint256"
        },
        {
          "name": "location",
          "type": "string"
        }
      ],
      "name": "updateRecipientLocation",
      "outputs": [
        {
          "name": "success",
          "type": "bool"
        }
      ],
      "payable": false,
      "stateMutability": "nonpayable",
      "type": "function"
    },
    {
      "constant": false,
      "inputs": [
        {
          "name": "name",
          "type": "string"
        },
        {
          "name": "location",
          "type": "string"
        }
      ],
      "name": "createRecipient",
      "outputs": [
        {
          "name": "recipientID",
          "type": "uint256"
        }
      ],
      "payable": false,
      "stateMutability": "nonpayable",
      "type": "function"
    },
    {
      "constant": true,
      "inputs": [],
      "name": "offersCount",
      "outputs": [
        {
          "name": "",
          "type": "uint256"
        }
      ],
      "payable": false,
      "stateMutability": "view",
      "type": "function"
    },
    {
      "constant": true,
      "inputs": [
        {
          "name": "index",
          "type": "uint256"
        },
        {
          "name": "bound",
          "type": "uint256"
        }
      ],
      "name": "indexWithinBounds",
      "outputs": [
        {
          "name": "inBounds",
          "type": "bool"
        }
      ],
      "payable": false,
      "stateMutability": "view",
      "type": "function"
    },
    {
      "constant": false,
      "inputs": [
        {
          "name": "ownerid",
          "type": "uint256"
        },
        {
          "name": "ownerName",
          "type": "string"
        },
        {
          "name": "materialType",
          "type": "string"
        },
        {
          "name": "quantity",
          "type": "uint256"
        },
        {
          "name": "size",
          "type": "string"
        },
        {
          "name": "long",
          "type": "string"
        },
        {
          "name": "lat",
          "type": "string"
        }
      ],
      "name": "createNeed",
      "outputs": [
        {
          "name": "needID",
          "type": "uint256"
        }
      ],
      "payable": false,
      "stateMutability": "nonpayable",
      "type": "function"
    },
    {
      "constant": false,
      "inputs": [
        {
          "name": "ownerid",
          "type": "uint256"
        },
        {
          "name": "ownerName",
          "type": "string"
        },
        {
          "name": "materialType",
          "type": "string"
        },
        {
          "name": "quantity",
          "type": "uint256"
        },
        {
          "name": "size",
          "type": "string"
        },
        {
          "name": "long",
          "type": "string"
        },
        {
          "name": "lat",
          "type": "string"
        }
      ],
      "name": "createOffer",
      "outputs": [
        {
          "name": "offerID",
          "type": "uint256"
        }
      ],
      "payable": false,
      "stateMutability": "nonpayable",
      "type": "function"
    },
    {
      "constant": false,
      "inputs": [
        {
          "name": "index",
          "type": "uint256"
        },
        {
          "name": "name",
          "type": "string"
        }
      ],
      "name": "updateProviderName",
      "outputs": [
        {
          "name": "success",
          "type": "bool"
        }
      ],
      "payable": false,
      "stateMutability": "nonpayable",
      "type": "function"
    },
    {
      "constant": true,
      "inputs": [],
      "name": "isProvidersZeroPositionInitialized",
      "outputs": [
        {
          "name": "isInit",
          "type": "bool"
        }
      ],
      "payable": false,
      "stateMutability": "view",
      "type": "function"
    },
    {
      "constant": false,
      "inputs": [
        {
          "name": "index",
          "type": "uint256"
        },
        {
          "name": "ownerid",
          "type": "uint256"
        },
        {
          "name": "ownerName",
          "type": "string"
        }
      ],
      "name": "updateOfferOwnerIDAndNameByID",
      "outputs": [
        {
          "name": "success",
          "type": "bool"
        }
      ],
      "payable": false,
      "stateMutability": "nonpayable",
      "type": "function"
    },
    {
      "constant": true,
      "inputs": [],
      "name": "isOffersZeroPositionInitialized",
      "outputs": [
        {
          "name": "isInit",
          "type": "bool"
        }
      ],
      "payable": false,
      "stateMutability": "view",
      "type": "function"
    },
    {
      "constant": true,
      "inputs": [
        {
          "name": "offerid",
          "type": "uint256"
        }
      ],
      "name": "offerDoesExist",
      "outputs": [
        {
          "name": "offerExists",
          "type": "bool"
        }
      ],
      "payable": false,
      "stateMutability": "view",
      "type": "function"
    },
    {
      "constant": false,
      "inputs": [
        {
          "name": "index",
          "type": "uint256"
        },
        {
          "name": "name",
          "type": "string"
        }
      ],
      "name": "updateRecipientName",
      "outputs": [
        {
          "name": "success",
          "type": "bool"
        }
      ],
      "payable": false,
      "stateMutability": "nonpayable",
      "type": "function"
    },
    {
      "constant": false,
      "inputs": [
        {
          "name": "index",
          "type": "uint256"
        },
        {
          "name": "provider",
          "type": "string"
        }
      ],
      "name": "updateTxProvider",
      "outputs": [
        {
          "name": "success",
          "type": "bool"
        }
      ],
      "payable": false,
      "stateMutability": "nonpayable",
      "type": "function"
    },
    {
      "constant": true,
      "inputs": [],
      "name": "isTxZeroPositionInitialized",
      "outputs": [
        {
          "name": "isInit",
          "type": "bool"
        }
      ],
      "payable": false,
      "stateMutability": "view",
      "type": "function"
    },
    {
      "constant": false,
      "inputs": [
        {
          "name": "index",
          "type": "uint256"
        },
        {
          "name": "newlat",
          "type": "string"
        }
      ],
      "name": "updateLatbyNeedID",
      "outputs": [
        {
          "name": "success",
          "type": "bool"
        }
      ],
      "payable": false,
      "stateMutability": "nonpayable",
      "type": "function"
    },
    {
      "constant": true,
      "inputs": [],
      "name": "getProvidersIntIndexArray",
      "outputs": [
        {
          "name": "provArray",
          "type": "uint256[]"
        }
      ],
      "payable": false,
      "stateMutability": "view",
      "type": "function"
    },
    {
      "constant": false,
      "inputs": [
        {
          "name": "index",
          "type": "uint256"
        },
        {
          "name": "location",
          "type": "string"
        }
      ],
      "name": "updateTxLocation",
      "outputs": [
        {
          "name": "success",
          "type": "bool"
        }
      ],
      "payable": false,
      "stateMutability": "nonpayable",
      "type": "function"
    },
    {
      "constant": true,
      "inputs": [],
      "name": "needsCount",
      "outputs": [
        {
          "name": "",
          "type": "uint256"
        }
      ],
      "payable": false,
      "stateMutability": "view",
      "type": "function"
    },
    {
      "constant": true,
      "inputs": [
        {
          "name": "input",
          "type": "string"
        }
      ],
      "name": "isLatLong",
      "outputs": [
        {
          "name": "islatlong",
          "type": "bool"
        }
      ],
      "payable": false,
      "stateMutability": "view",
      "type": "function"
    },
    {
      "payable": false,
      "stateMutability": "nonpayable",
      "type": "fallback"
    }
  ],
  "bytecode": "0x606060405260006005556000600655600060075560006008556000600955341561002857600080fd5b614183806100376000396000f300606060405260043610610272576000357c0100000000000000000000000000000000000000000000000000000000900463ffffffff16806302f4f512146102825780630a0750ff146103005780630e971ba71461037e5780631126c6171461040c57806313284d441461048a5780631e8020d9146106eb578063215533f01461072657806322eabb8e14610987578063293f8f32146109b05780632f9006e2146109eb57806333592a1f14610a9f5780633925af7114610bae5780633c54068714610c185780633ea075be14610c415780633f8d6bcf14610cbf57806346623ac014610d3d5780636083e02314610d6657806361e399f814610de457806362a5418714610e62578063659e0ea214610f71578063704a2b3f146110ec57806371f9040e1461112757806374c83268146111545780638396e6651461117d578063865467e41461127d57806389221b23146112b85780638e4968321461133657806395c4682c1461134b5780639bee9f801461138f578063a058344c146113bc578063a21ffdce14611443578063a45f379e14611487578063aa3a2a4d146114fc578063b39af86d1461157a578063b5d80b37146115f8578063bec02acc146116ac578063bf620fe6146116d5578063c2d86ab014611719578063c513a5d3146118a8578063c6a4ee1114611a37578063d6648f1914611ab5578063dda71c5b14611ae2578063e25ab5fc14611b69578063e5bed28014611b96578063e67f87e814611bd1578063e7e57fec14611c4f578063e83e29b114611ccd578063eab2097814611cfa578063ec5c88b814611d78578063f6e0063014611de2578063f8ba86f714611e60578063fbca107e14611e89575b341561027d57600080fd5b600080fd5b341561028d57600080fd5b6102e6600480803590602001909190803590602001908201803590602001908080601f01602080910402602001604051908101604052809392919081815260200183838082843782019150505050505091905050611efe565b604051808215151515815260200191505060405180910390f35b341561030b57600080fd5b610364600480803590602001909190803590602001908201803590602001908080601f01602080910402602001604051908101604052809392919081815260200183838082843782019150505050505091905050611f59565b604051808215151515815260200191505060405180910390f35b341561038957600080fd5b610391611fb4565b6040518080602001828103825283818151815260200191508051906020019080838360005b838110156103d15780820151818401526020810190506103b6565b50505050905090810190601f1680156103fe5780820380516001836020036101000a031916815260200191505b509250505060405180910390f35b341561041757600080fd5b610470600480803590602001909190803590602001908201803590602001908080601f01602080910402602001604051908101604052809392919081815260200183838082843782019150505050505091905050611fbf565b604051808215151515815260200191505060405180910390f35b341561049557600080fd5b6104ab6004808035906020019091905050612019565b60405180898152602001888152602001806020018060200187815260200180602001806020018060200186810386528c818151815260200191508051906020019080838360005b8381101561050d5780820151818401526020810190506104f2565b50505050905090810190601f16801561053a5780820380516001836020036101000a031916815260200191505b5086810385528b818151815260200191508051906020019080838360005b83811015610573578082015181840152602081019050610558565b50505050905090810190601f1680156105a05780820380516001836020036101000a031916815260200191505b50868103845289818151815260200191508051906020019080838360005b838110156105d95780820151818401526020810190506105be565b50505050905090810190601f1680156106065780820380516001836020036101000a031916815260200191505b50868103835288818151815260200191508051906020019080838360005b8381101561063f578082015181840152602081019050610624565b50505050905090810190601f16801561066c5780820380516001836020036101000a031916815260200191505b50868103825287818151815260200191508051906020019080838360005b838110156106a557808201518184015260208101905061068a565b50505050905090810190601f1680156106d25780820380516001836020036101000a031916815260200191505b509d505050505050505050505050505060405180910390f35b34156106f657600080fd5b61070c600480803590602001909190505061241c565b604051808215151515815260200191505060405180910390f35b341561073157600080fd5b6107476004808035906020019091905050612488565b60405180898152602001888152602001806020018060200187815260200180602001806020018060200186810386528c818151815260200191508051906020019080838360005b838110156107a957808201518184015260208101905061078e565b50505050905090810190601f1680156107d65780820380516001836020036101000a031916815260200191505b5086810385528b818151815260200191508051906020019080838360005b8381101561080f5780820151818401526020810190506107f4565b50505050905090810190601f16801561083c5780820380516001836020036101000a031916815260200191505b50868103845289818151815260200191508051906020019080838360005b8381101561087557808201518184015260208101905061085a565b50505050905090810190601f1680156108a25780820380516001836020036101000a031916815260200191505b50868103835288818151815260200191508051906020019080838360005b838110156108db5780820151818401526020810190506108c0565b50505050905090810190601f1680156109085780820380516001836020036101000a031916815260200191505b50868103825287818151815260200191508051906020019080838360005b83811015610941578082015181840152602081019050610926565b50505050905090810190601f16801561096e5780820380516001836020036101000a031916815260200191505b509d505050505050505050505050505060405180910390f35b341561099257600080fd5b61099a61288b565b6040518082815260200191505060405180910390f35b34156109bb57600080fd5b6109d16004808035906020019091905050612891565b604051808215151515815260200191505060405180910390f35b34156109f657600080fd5b610a89600480803590602001908201803590602001908080601f0160208091040260200160405190810160405280939291908181526020018383808284378201915050505050509190803590602001908201803590602001908080601f016020809104026020016040519081016040528093929190818152602001838380828437820191505050505050919050506128fd565b6040518082815260200191505060405180910390f35b3415610aaa57600080fd5b610ac060048080359060200190919050506129aa565b604051808481526020018060200180602001838103835285818151815260200191508051906020019080838360005b83811015610b0a578082015181840152602081019050610aef565b50505050905090810190601f168015610b375780820380516001836020036101000a031916815260200191505b50838103825284818151815260200191508051906020019080838360005b83811015610b70578082015181840152602081019050610b55565b50505050905090810190601f168015610b9d5780820380516001836020036101000a031916815260200191505b509550505050505060405180910390f35b3415610bb957600080fd5b610bc1612b46565b6040518080602001828103825283818151815260200191508051906020019060200280838360005b83811015610c04578082015181840152602081019050610be9565b505050509050019250505060405180910390f35b3415610c2357600080fd5b610c2b612bbc565b6040518082815260200191505060405180910390f35b3415610c4c57600080fd5b610ca5600480803590602001909190803590602001908201803590602001908080601f01602080910402602001604051908101604052809392919081815260200183838082843782019150505050505091905050612bc2565b604051808215151515815260200191505060405180910390f35b3415610cca57600080fd5b610d23600480803590602001909190803590602001908201803590602001908080601f01602080910402602001604051908101604052809392919081815260200183838082843782019150505050505091905050612c2e565b604051808215151515815260200191505060405180910390f35b3415610d4857600080fd5b610d50612c9a565b6040518082815260200191505060405180910390f35b3415610d7157600080fd5b610dca600480803590602001909190803590602001908201803590602001908080601f01602080910402602001604051908101604052809392919081815260200183838082843782019150505050505091905050612c9f565b604051808215151515815260200191505060405180910390f35b3415610def57600080fd5b610e48600480803590602001909190803590602001908201803590602001908080601f01602080910402602001604051908101604052809392919081815260200183838082843782019150505050505091905050612d0b565b604051808215151515815260200191505060405180910390f35b3415610e6d57600080fd5b610e836004808035906020019091905050612d66565b604051808481526020018060200180602001838103835285818151815260200191508051906020019080838360005b83811015610ecd578082015181840152602081019050610eb2565b50505050905090810190601f168015610efa5780820380516001836020036101000a031916815260200191505b50838103825284818151815260200191508051906020019080838360005b83811015610f33578082015181840152602081019050610f18565b50505050905090810190601f168015610f605780820380516001836020036101000a031916815260200191505b509550505050505060405180910390f35b3415610f7c57600080fd5b610f926004808035906020019091905050612f05565b60405180858152602001806020018060200180602001848103845287818151815260200191508051906020019080838360005b83811015610fe0578082015181840152602081019050610fc5565b50505050905090810190601f16801561100d5780820380516001836020036101000a031916815260200191505b50848103835286818151815260200191508051906020019080838360005b8381101561104657808201518184015260208101905061102b565b50505050905090810190601f1680156110735780820380516001836020036101000a031916815260200191505b50848103825285818151815260200191508051906020019080838360005b838110156110ac578082015181840152602081019050611091565b50505050905090810190601f1680156110d95780820380516001836020036101000a031916815260200191505b5097505050505050505060405180910390f35b34156110f757600080fd5b61110d600480803590602001909190505061315d565b604051808215151515815260200191505060405180910390f35b341561113257600080fd5b61113a613215565b604051808215151515815260200191505060405180910390f35b341561115f57600080fd5b611167613232565b6040518082815260200191505060405180910390f35b341561118857600080fd5b611267600480803590602001909190803590602001908201803590602001908080601f0160208091040260200160405190810160405280939291908181526020018383808284378201915050505050509190803590602001908201803590602001908080601f0160208091040260200160405190810160405280939291908181526020018383808284378201915050505050509190803590602001908201803590602001908080601f01602080910402602001604051908101604052809392919081815260200183838082843782019150505050505091905050613238565b6040518082815260200191505060405180910390f35b341561128857600080fd5b61129e60048080359060200190919050506132f6565b604051808215151515815260200191505060405180910390f35b34156112c357600080fd5b61131c600480803590602001909190803590602001908201803590602001908080601f01602080910402602001604051908101604052809392919081815260200183838082843782019150505050505091905050613387565b604051808215151515815260200191505060405180910390f35b341561134157600080fd5b6113496133e2565b005b341561135657600080fd5b61137560048080359060200190919080359060200190919050506133e4565b604051808215151515815260200191505060405180910390f35b341561139a57600080fd5b6113a261342f565b604051808215151515815260200191505060405180910390f35b34156113c757600080fd5b611429600480803590602001909190803590602001909190803590602001908201803590602001908080601f0160208091040260200160405190810160405280939291908181526020018383808284378201915050505050509190505061344c565b604051808215151515815260200191505060405180910390f35b341561144e57600080fd5b61146d60048080359060200190919080359060200190919050506134c3565b604051808215151515815260200191505060405180910390f35b341561149257600080fd5b6114e2600480803590602001908201803590602001908080601f0160208091040260200160405190810160405280939291908181526020018383808284378201915050505050509190505061350e565b604051808215151515815260200191505060405180910390f35b341561150757600080fd5b611560600480803590602001909190803590602001908201803590602001908080601f01602080910402602001604051908101604052809392919081815260200183838082843782019150505050505091905050613539565b604051808215151515815260200191505060405180910390f35b341561158557600080fd5b6115de600480803590602001909190803590602001908201803590602001908080601f01602080910402602001604051908101604052809392919081815260200183838082843782019150505050505091905050613594565b604051808215151515815260200191505060405180910390f35b341561160357600080fd5b611696600480803590602001908201803590602001908080601f0160208091040260200160405190810160405280939291908181526020018383808284378201915050505050509190803590602001908201803590602001908080601f016020809104026020016040519081016040528093929190818152602001838380828437820191505050505050919050506135ef565b6040518082815260200191505060405180910390f35b34156116b757600080fd5b6116bf61369d565b6040518082815260200191505060405180910390f35b34156116e057600080fd5b6116ff60048080359060200190919080359060200190919050506136a3565b604051808215151515815260200191505060405180910390f35b341561172457600080fd5b611892600480803590602001909190803590602001908201803590602001908080601f0160208091040260200160405190810160405280939291908181526020018383808284378201915050505050509190803590602001908201803590602001908080601f0160208091040260200160405190810160405280939291908181526020018383808284378201915050505050509190803590602001909190803590602001908201803590602001908080601f0160208091040260200160405190810160405280939291908181526020018383808284378201915050505050509190803590602001908201803590602001908080601f0160208091040260200160405190810160405280939291908181526020018383808284378201915050505050509190803590602001908201803590602001908080601f016020809104026020016040519081016040528093929190818152602001838380828437820191505050505050919050506136c5565b6040518082815260200191505060405180910390f35b34156118b357600080fd5b611a21600480803590602001909190803590602001908201803590602001908080601f0160208091040260200160405190810160405280939291908181526020018383808284378201915050505050509190803590602001908201803590602001908080601f0160208091040260200160405190810160405280939291908181526020018383808284378201915050505050509190803590602001909190803590602001908201803590602001908080601f0160208091040260200160405190810160405280939291908181526020018383808284378201915050505050509190803590602001908201803590602001908080601f0160208091040260200160405190810160405280939291908181526020018383808284378201915050505050509190803590602001908201803590602001908080601f01602080910402602001604051908101604052809392919081815260200183838082843782019150505050505091905050613835565b6040518082815260200191505060405180910390f35b3415611a4257600080fd5b611a9b600480803590602001909190803590602001908201803590602001908080601f016020809104026020016040519081016040528093929190818152602001838380828437820191505050505050919050506139a5565b604051808215151515815260200191505060405180910390f35b3415611ac057600080fd5b611ac86139ff565b604051808215151515815260200191505060405180910390f35b3415611aed57600080fd5b611b4f600480803590602001909190803590602001909190803590602001908201803590602001908080601f01602080910402602001604051908101604052809392919081815260200183838082843782019150505050505091905050613a1c565b604051808215151515815260200191505060405180910390f35b3415611b7457600080fd5b611b7c613a93565b604051808215151515815260200191505060405180910390f35b3415611ba157600080fd5b611bb76004808035906020019091905050613ab0565b604051808215151515815260200191505060405180910390f35b3415611bdc57600080fd5b611c35600480803590602001909190803590602001908201803590602001908080601f01602080910402602001604051908101604052809392919081815260200183838082843782019150505050505091905050613b5c565b604051808215151515815260200191505060405180910390f35b3415611c5a57600080fd5b611cb3600480803590602001909190803590602001908201803590602001908080601f01602080910402602001604051908101604052809392919081815260200183838082843782019150505050505091905050613bb7565b604051808215151515815260200191505060405180910390f35b3415611cd857600080fd5b611ce0613c12565b604051808215151515815260200191505060405180910390f35b3415611d0557600080fd5b611d5e600480803590602001909190803590602001908201803590602001908080601f01602080910402602001604051908101604052809392919081815260200183838082843782019150505050505091905050613c2f565b604051808215151515815260200191505060405180910390f35b3415611d8357600080fd5b611d8b613c9b565b6040518080602001828103825283818151815260200191508051906020019060200280838360005b83811015611dce578082015181840152602081019050611db3565b505050509050019250505060405180910390f35b3415611ded57600080fd5b611e46600480803590602001909190803590602001908201803590602001908080601f01602080910402602001604051908101604052809392919081815260200183838082843782019150505050505091905050613d11565b604051808215151515815260200191505060405180910390f35b3415611e6b57600080fd5b611e73613d6c565b6040518082815260200191505060405180910390f35b3415611e9457600080fd5b611ee4600480803590602001908201803590602001908080601f01602080910402602001604051908101604052809392919081815260200183838082843782019150505050505091905050613d72565b604051808215151515815260200191505060405180910390f35b6000600954831180611f155750611f13613a93565b155b15611f235760009050611f53565b81600460008581526020019081526020016000206005019080519060200190611f4d929190613fb4565b50600190505b92915050565b6000600854831180611f705750611f6e61342f565b155b15611f7e5760009050611fae565b81600360008581526020019081526020016000206003019080519060200190611fa8929190613fb4565b50600190505b92915050565b611fbc614034565b90565b6000600554831180611fd65750611fd46139ff565b155b15611fe45760009050612013565b81600080858152602001908152602001600020600201908051906020019061200d929190613fb4565b50600190505b92915050565b600080612024614034565b61202c614034565b6000612036614034565b61203e614034565b612046614034565b60085489101561241157600360008a8152602001908152602001600020600001549750600360008a8152602001908152602001600020600101549650600360008a81526020019081526020016000206002018054600181600116156101000203166002900480601f01602080910402602001604051908101604052809291908181526020018280546001816001161561010002031660029004801561212c5780601f106121015761010080835404028352916020019161212c565b820191906000526020600020905b81548152906001019060200180831161210f57829003601f168201915b50505050509550600360008a81526020019081526020016000206003018054600181600116156101000203166002900480601f0160208091040260200160405190810160405280929190818152602001828054600181600116156101000203166002900480156121dd5780601f106121b2576101008083540402835291602001916121dd565b820191906000526020600020905b8154815290600101906020018083116121c057829003601f168201915b50505050509450600360008a8152602001908152602001600020600401549350600360008a81526020019081526020016000206005018054600181600116156101000203166002900480601f0160208091040260200160405190810160405280929190818152602001828054600181600116156101000203166002900480156122a75780601f1061227c576101008083540402835291602001916122a7565b820191906000526020600020905b81548152906001019060200180831161228a57829003601f168201915b50505050509250600360008a81526020019081526020016000206006018054600181600116156101000203166002900480601f0160208091040260200160405190810160405280929190818152602001828054600181600116156101000203166002900480156123585780601f1061232d57610100808354040283529160200191612358565b820191906000526020600020905b81548152906001019060200180831161233b57829003601f168201915b50505050509150600360008a81526020019081526020016000206007018054600181600116156101000203166002900480601f0160208091040260200160405190810160405280929190818152602001828054600181600116156101000203166002900480156124095780601f106123de57610100808354040283529160200191612409565b820191906000526020600020905b8154815290600101906020018083116123ec57829003601f168201915b505050505090505b919395975091939597565b600080612427614034565b61242f614034565b61243885612d66565b92509250925061244a836006546136a3565b15801561245c575061245b8261350e565b5b801561246d575061246c8161350e565b5b1561247b5760009350612480565b600193505b505050919050565b600080612493614034565b61249b614034565b60006124a5614034565b6124ad614034565b6124b5614034565b60095489101561288057600460008a8152602001908152602001600020600001549750600460008a8152602001908152602001600020600101549650600460008a81526020019081526020016000206002018054600181600116156101000203166002900480601f01602080910402602001604051908101604052809291908181526020018280546001816001161561010002031660029004801561259b5780601f106125705761010080835404028352916020019161259b565b820191906000526020600020905b81548152906001019060200180831161257e57829003601f168201915b50505050509550600460008a81526020019081526020016000206003018054600181600116156101000203166002900480601f01602080910402602001604051908101604052809291908181526020018280546001816001161561010002031660029004801561264c5780601f106126215761010080835404028352916020019161264c565b820191906000526020600020905b81548152906001019060200180831161262f57829003601f168201915b50505050509450600460008a8152602001908152602001600020600401549350600460008a81526020019081526020016000206005018054600181600116156101000203166002900480601f0160208091040260200160405190810160405280929190818152602001828054600181600116156101000203166002900480156127165780601f106126eb57610100808354040283529160200191612716565b820191906000526020600020905b8154815290600101906020018083116126f957829003601f168201915b50505050509250600460008a81526020019081526020016000206006018054600181600116156101000203166002900480601f0160208091040260200160405190810160405280929190818152602001828054600181600116156101000203166002900480156127c75780601f1061279c576101008083540402835291602001916127c7565b820191906000526020600020905b8154815290600101906020018083116127aa57829003601f168201915b50505050509150600460008a81526020019081526020016000206007018054600181600116156101000203166002900480601f0160208091040260200160405190810160405280929190818152602001828054600181600116156101000203166002900480156128785780601f1061284d57610100808354040283529160200191612878565b820191906000526020600020905b81548152906001019060200180831161285b57829003601f168201915b505050505090505b919395975091939597565b60065481565b60008061289c614034565b6128a4614034565b6128ad856129aa565b9250925092506128bf836005546136a3565b1580156128d157506128d08261350e565b5b80156128e257506128e18161350e565b5b156128f057600093506128f5565b600193505b505050919050565b600061290a600554612891565b1561291457600080fd5b606060405190810160405280600554815260200184815260200183815250600080600554815260200190815260200160002060008201518160000155602082015181600101908051906020019061296c929190614048565b506040820151816002019080519060200190612989929190614048565b50905050600554905060056000815480929190600101919050555092915050565b60006129b4614034565b6129bc614034565b600554841015612b3f576000808581526020019081526020016000206000015492506000808581526020019081526020016000206001018054600181600116156101000203166002900480601f016020809104026020016040519081016040528092919081815260200182805460018160011615610100020316600290048015612a875780601f10612a5c57610100808354040283529160200191612a87565b820191906000526020600020905b815481529060010190602001808311612a6a57829003601f168201915b505050505091506000808581526020019081526020016000206002018054600181600116156101000203166002900480601f016020809104026020016040519081016040528092919081815260200182805460018160011615610100020316600290048015612b375780601f10612b0c57610100808354040283529160200191612b37565b820191906000526020600020905b815481529060010190602001808311612b1a57829003601f168201915b505050505090505b9193909250565b612b4e6140c8565b612b566140c8565b6000600654604051805910612b685750595b90808252806020026020018201604052509150600090505b600654811015612bb457808282815181101515612b9957fe5b90602001906020020181815250508080600101915050612b80565b819250505090565b60075481565b6000600854831180612bd95750612bd761342f565b155b80612bea5750612be882613d72565b155b15612bf85760009050612c28565b81600360008581526020019081526020016000206006019080519060200190612c22929190613fb4565b50600190505b92915050565b6000600954831180612c465750612c4482613d72565b155b80612c565750612c54613a93565b155b15612c645760009050612c94565b81600460008581526020019081526020016000206007019080519060200190612c8e929190613fb4565b50600190505b92915050565b600090565b6000600954831180612cb75750612cb582613d72565b155b80612cc75750612cc5613a93565b155b15612cd55760009050612d05565b81600460008581526020019081526020016000206006019080519060200190612cff929190613fb4565b50600190505b92915050565b6000600754831180612d225750612d20613c12565b155b15612d305760009050612d60565b81600260008581526020019081526020016000206002019080519060200190612d5a929190613fb4565b50600190505b92915050565b6000612d70614034565b612d78614034565b600654841015612efe5760016000858152602001908152602001600020600001549250600160008581526020019081526020016000206001018054600181600116156101000203166002900480601f016020809104026020016040519081016040528092919081815260200182805460018160011615610100020316600290048015612e455780601f10612e1a57610100808354040283529160200191612e45565b820191906000526020600020905b815481529060010190602001808311612e2857829003601f168201915b50505050509150600160008581526020019081526020016000206002018054600181600116156101000203166002900480601f016020809104026020016040519081016040528092919081815260200182805460018160011615610100020316600290048015612ef65780601f10612ecb57610100808354040283529160200191612ef6565b820191906000526020600020905b815481529060010190602001808311612ed957829003601f168201915b505050505090505b9193909250565b6000612f0f614034565b612f17614034565b612f1f614034565b6007548510156131565760026000868152602001908152602001600020600001549350600260008681526020019081526020016000206001018054600181600116156101000203166002900480601f016020809104026020016040519081016040528092919081815260200182805460018160011615610100020316600290048015612fec5780601f10612fc157610100808354040283529160200191612fec565b820191906000526020600020905b815481529060010190602001808311612fcf57829003601f168201915b50505050509250600260008681526020019081526020016000206002018054600181600116156101000203166002900480601f01602080910402602001604051908101604052809291908181526020018280546001816001161561010002031660029004801561309d5780601f106130725761010080835404028352916020019161309d565b820191906000526020600020905b81548152906001019060200180831161308057829003601f168201915b50505050509150600260008681526020019081526020016000206003018054600181600116156101000203166002900480601f01602080910402602001604051908101604052809291908181526020018280546001816001161561010002031660029004801561314e5780601f106131235761010080835404028352916020019161314e565b820191906000526020600020905b81548152906001019060200180831161313157829003601f168201915b505050505090505b9193509193565b600080600061316a614034565b613172614034565b600061317c614034565b613184614034565b61318c614034565b6131958a612019565b975097509750975097509750975097508393508292508191508090506131bd886008546136a3565b1580156131d357506131d1876005546136a3565b155b80156131e457506131e38661350e565b5b80156131f557506131f48561350e565b5b156132035760009850613208565b600198505b5050505050505050919050565b600080600654141561322a576000905061322f565b600190505b90565b60055481565b6000608060405190810160405280600754815260200185815260200184815260200183815250600260006007548152602001908152602001600020600082015181600001556020820151816001019080519060200190613299929190614048565b5060408201518160020190805190602001906132b6929190614048565b5060608201518160030190805190602001906132d3929190614048565b509050506007549050600760008154809291906001019190505550949350505050565b600080613301614034565b613309614034565b613311614034565b61331a86612f05565b935093509350935060008410158015613337575060016007540184105b15801561334957506133488361350e565b5b801561335a57506133598261350e565b5b801561336b575061336a8161350e565b5b15613379576000945061337e565b600194505b50505050919050565b600060085483118061339e575061339c61342f565b155b156133ac57600090506133dc565b816003600085815260200190815260200160002060050190805190602001906133d6929190613fb4565b50600190505b92915050565b565b60006009548311806133fb57506133f9613a93565b155b156134095760009050613429565b816004600085815260200190815260200160002060040181905550600190505b92915050565b60008060085414156134445760009050613449565b600190505b90565b6000600854841180613463575061346161342f565b155b1561347157600090506134bc565b826003600086815260200190815260200160002060010181905550816003600086815260200190815260200160002060020190805190602001906134b6929190613fb4565b50600190505b9392505050565b60006008548311806134da57506134d861342f565b155b156134e85760009050613508565b816003600085815260200190815260200160002060040181905550600190505b92915050565b60006135186140dc565b82905060008151141561352e5760019150613533565b600091505b50919050565b6000600954831180613550575061354e613a93565b155b1561355e576000905061358e565b81600460008581526020019081526020016000206003019080519060200190613588929190613fb4565b50600190505b92915050565b60006006548311806135ab57506135a9613215565b155b156135b957600090506135e9565b816001600085815260200190815260200160002060020190805190602001906135e3929190613fb4565b50600190505b92915050565b60006135fc60065461241c565b1561360657600080fd5b60606040519081016040528060065481526020018481526020018381525060016000600654815260200190815260200160002060008201518160000155602082015181600101908051906020019061365f929190614048565b50604082015181600201908051906020019061367c929190614048565b50905050600654905060066000815480929190600101919050555092915050565b60095481565b600060018201831015156136ba57600190506136bf565b600090505b92915050565b60006136d260085461315d565b80156136e357506136e28861241c565b5b80156136f457506136f383613d72565b5b8015613705575061370482613d72565b5b1561370f57600080fd5b6101006040519081016040528060085481526020018981526020018881526020018781526020018681526020018581526020018481526020018381525060036000600854815260200190815260200160002060008201518160000155602082015181600101556040820151816002019080519060200190613791929190614048565b5060608201518160030190805190602001906137ae929190614048565b506080820151816004015560a08201518160050190805190602001906137d5929190614048565b5060c08201518160060190805190602001906137f2929190614048565b5060e082015181600701908051906020019061380f929190614048565b509050506008549050600860008154809291906001019190505550979650505050505050565b6000613842600954613ab0565b8015613853575061385288612891565b5b8015613864575061386383613d72565b5b8015613875575061387482613d72565b5b1561387f57600080fd5b6101006040519081016040528060095481526020018981526020018881526020018781526020018681526020018581526020018481526020018381525060046000600954815260200190815260200160002060008201518160000155602082015181600101556040820151816002019080519060200190613901929190614048565b50606082015181600301908051906020019061391e929190614048565b506080820151816004015560a0820151816005019080519060200190613945929190614048565b5060c0820151816006019080519060200190613962929190614048565b5060e082015181600701908051906020019061397f929190614048565b509050506009549050600960008154809291906001019190505550979650505050505050565b60006005548311806139bc57506139ba6139ff565b155b156139ca57600090506139f9565b8160008085815260200190815260200160002060010190805190602001906139f3929190613fb4565b50600190505b92915050565b6000806005541415613a145760009050613a19565b600190505b90565b6000600954841180613a335750613a31613a93565b155b15613a415760009050613a8c565b82600460008681526020019081526020016000206001018190555081600460008681526020019081526020016000206002019080519060200190613a86929190613fb4565b50600190505b9392505050565b6000806009541415613aa85760009050613aad565b600190505b90565b6000806000613abd614034565b613ac5614034565b6000613acf614034565b613ad7614034565b613adf614034565b613ae88a612488565b97509750975097509750975097509750613b04886009546136a3565b158015613b1a5750613b18876005546136a3565b155b8015613b2b5750613b2a8661350e565b5b8015613b3c5750613b3b8561350e565b5b15613b4a5760009850613b4f565b600198505b5050505050505050919050565b6000600654831180613b735750613b71613215565b155b15613b815760009050613bb1565b81600160008581526020019081526020016000206001019080519060200190613bab929190613fb4565b50600190505b92915050565b6000600754831180613bce5750613bcc613c12565b155b15613bdc5760009050613c0c565b81600260008581526020019081526020016000206001019080519060200190613c06929190613fb4565b50600190505b92915050565b6000806007541415613c275760009050613c2c565b600190505b90565b6000600854831180613c465750613c4461342f565b155b80613c575750613c5582613d72565b155b15613c655760009050613c95565b81600360008581526020019081526020016000206007019080519060200190613c8f929190613fb4565b50600190505b92915050565b613ca36140c8565b613cab6140c8565b6000600554604051805910613cbd5750595b90808252806020026020018201604052509150600090505b600554811015613d0957808282815181101515613cee57fe5b90602001906020020181815250508080600101915050613cd5565b819250505090565b6000600754831180613d285750613d26613c12565b155b15613d365760009050613d66565b81600260008581526020019081526020016000206003019080519060200190613d60929190613fb4565b50600190505b92915050565b60085481565b6000613d7c6140f0565b613d846140f0565b613d8c61410a565b613d9585613e53565b9250613dd56040805190810160405280600181526020017f2e00000000000000000000000000000000000000000000000000000000000000815250613e53565b91506001613dec8385613e8190919063ffffffff16565b01604051805910613dfa5750595b908082528060200260200182016040528015613e3057816020015b613e1d61411e565b815260200190600190039081613e155790505b509050600181511115613e465760019350613e4b565b600093505b505050919050565b613e5b6140f0565b600060208301905060408051908101604052808451815260200182815250915050919050565b6000808260000151613ea58560000151866020015186600001518760200151613ef8565b0190505b836000015184602001510181111515613ef15781806001019250508260000151613ee9856020015183038660000151038386600001518760200151613ef8565b019050613ea9565b5092915050565b60008060008060008887111515613fa257602087111515613f595760018760200360080260020a031980875116888b038a018a96505b818388511614613f4e57600187019650806001880310613f2e578b8b0196505b505050839450613fa8565b8686209150879350600092505b86890383111515613fa1578684209050806000191682600019161415613f8e57839450613fa8565b6001840193508280600101935050613f66565b5b88880194505b50505050949350505050565b828054600181600116156101000203166002900490600052602060002090601f016020900481019282601f10613ff557805160ff1916838001178555614023565b82800160010185558215614023579182015b82811115614022578251825591602001919060010190614007565b5b5090506140309190614132565b5090565b602060405190810160405280600081525090565b828054600181600116156101000203166002900490600052602060002090601f016020900481019282601f1061408957805160ff19168380011785556140b7565b828001600101855582156140b7579182015b828111156140b657825182559160200191906001019061409b565b5b5090506140c49190614132565b5090565b602060405190810160405280600081525090565b602060405190810160405280600081525090565b604080519081016040528060008152602001600081525090565b602060405190810160405280600081525090565b602060405190810160405280600081525090565b61415491905b80821115614150576000816000905550600101614138565b5090565b905600a165627a7a72305820b07aa9438a46dbb929652e7494263daed79d3ce15fda16b324b290a39a31dca00029",
  "source": "pragma solidity ^0.4.11;\n\n//import \"github.com/Arachnid/solidity-stringutils/strings.sol\";\nimport \"./strings.sol\";\n\ncontract LifeMesh {\n    using strings for *;\n\n    /* TODO\n    * need to delete records?\n    * locker mechanism?\n    * change Material.size to string\n     */\n\n    // if someone tries to send ether to this contract (not sure if this is right)\n    function() {\n        revert();\n    }\n\n    function DataContract() {\n        // init?\n    }\n\n    /*struct Properties {//add these into provider, recipient, tx classes for common props?\n        uint id;\n        string locations;\n        string name;\n    }*/\n    struct Provider {\n    uint id; //increment by 1 for every new provider - don't skip numbers\n    string name;\n    string location;\n\n    //string reputationScore;\n    //other properties\n    }\n    struct Recipient { //will consolidate Provider and Recipient into single User struct if no diff later on\n    uint id; //increment by 1 for every new recipient - don't skip numbers\n    string name;\n    string location;\n\n    //string reputationScore;\n    //other properties\n    }\n    struct Tx {\n    uint id; //auto increments by 1 for every new tx - don't skip numbers\n    string provider;\n    string recipient;\n    string location;\n    //other properties\n    }\n    struct Material {\n    uint id;\n    uint ownerId; //id of provider or recipient\n    string ownerName;\n    string materialType;\n    uint quantity;\n    string size;\n\n    /* we'll store these Longitude and Latitude vars in the string format,\n        Decimal degrees (DD): 41.40338, 2.17403\n     solidity doesn't support floating point values\n     primarily used for needs*/\n    string long;\n    string lat;\n    }\n\n    //mapping declarations - change uint to string to store references to main DB instead?\n    mapping (uint => Provider) providers;\n    mapping (uint => Recipient) recipients;\n    mapping (uint => Tx) transactions;\n    mapping (uint => Material) needs;\n    mapping (uint => Material) offers;\n\n    // these shadow counters are incremented in this code assuming that object.id\n    // is incremented by 1 as well (see providerDoesExist, recipientDoesExist, txDoesExist)\n    uint public providerCount = 0;\n    uint public recipientCount = 0;\n    uint public txCount = 0;\n    uint public needsCount = 0;\n    uint public offersCount = 0;\n\n    // Needs list helpers\n    function createNeed(uint ownerid, string ownerName, string materialType, uint quantity, string size, string long, string lat)\n    returns (uint needID)\n    {\n        /*\n            :uint ownerid: recipient's uint id, could funciton as 'primary key'\n            :string ownerName: owner's string name, could funciton as 'primary key'\n            :string materialType: any string value describing resource/material type such as but not limited to 'food', 'blankets', anything - to be catgorized by Wit.ai\n            :uint quantity: any positive integer describing the amount of the materialType\n            :string size: any string describing any possible size - to be categorized by Wit.ai\n            :string long: string represnetation of longitude. format sample - Decimal degrees (DD): 41.40338, 2.17403\n            :string long: string represnetation of lattitude. format sample - Decimal degrees (DD): 41.40338, 2.17403\n            :return: current index value of 'row' about to be added as previously incremented by needsCount\n        */\n        if (needDoesExist(needsCount) && recipientDoesExist(ownerid) && isLatLong(long) && isLatLong(lat)) {\n            revert();\n        }\n        needs[needsCount] = Material(needsCount, ownerid, ownerName, materialType, quantity, size, long, lat);\n        needID = needsCount;\n        needsCount++;\n    }\n    function getNeedByID(uint index)\n    constant returns (uint id, uint ownerId, string ownerName, string materialType, uint quantity, string size, string long, string lat)\n    {\n        /*\n         :uint index: any postive integer representing index position of need in list\n         :return: returns all values contained in Material in needs list\n\n         *  contant keywords means func doesn't change any data\n            thus can be executed with no tx fee on network\n        */\n        if (index < needsCount) {\n            id = needs[index].id;\n            ownerId = needs[index].ownerId;\n            ownerName = needs[index].ownerName;\n            materialType = needs[index].materialType;\n            quantity = needs[index].quantity;\n            size = needs[index].size;\n            long = needs[index].long;\n            lat = needs[index].lat;\n        }\n    }\n    function updateLongbyNeedID(uint index, string newlong) returns (bool success) {\n        /*\n         :uint index: any positive integer describing the data position in the 'list'\n         :string newlong: new longitude string, in the decimal format\n\n         Checks if index is within bounds of currrent needs count and if newlong param follows\n         the decimal format for longitude.\n         Then after long property is updated, triggers an event that sends out the changed string values\n\n         (int values are sent out as is, due to lack of 'irrelevant markers'\n         uint - only positive integers which are all relevant in our implementation)\n         */\n\n        if (index > needsCount || !isNeedsZeroPositionInitialized() || !isLatLong(newlong)) {\n            success = false;\n        } else {\n            needs[index].long = newlong;\n            success = true;\n        }    }\n    function updateLatbyNeedID(uint index, string newlat) returns (bool success) {\n        /*\n         :uint index: any postive integer representing index position of need in list\n         :string newlat: any string value representing the new latitude location of the need, in decimal format\n         :return: returns true if preconds satisfied, false otherwise\n        */\n        if (index > needsCount || !isNeedsZeroPositionInitialized() || !isLatLong(newlat)) {\n            success = false;\n        } else {\n            needs[index].lat = newlat;\n            success = true;\n        }    }\n    // if we change ownerid, then we have to change name too since both belong to same owner\n    function updateNeedOwnerIDAndNameByID(uint index, uint ownerid, string ownerName) returns (bool success) {\n        if (index > needsCount || !isNeedsZeroPositionInitialized()) {\n            success = false;\n        } else {\n            needs[index].ownerId = ownerid;\n            needs[index].ownerName = ownerName;\n            success = true;\n        }    }\n    function updateNeedMaterialTypeByID(uint index, string materialType) returns (bool success) {\n        if (index > needsCount || !isNeedsZeroPositionInitialized()) {\n            success = false;\n        } else {\n            needs[index].materialType = materialType;\n            success = true;\n        }    }\n    function updateNeedQuantityByID(uint index, uint quantity) returns (bool success) {\n        if (index > needsCount || !isNeedsZeroPositionInitialized()) {\n            success = false;\n        } else {\n            needs[index].quantity = quantity;\n            success = true;\n        }\n    }\n    function updateNeedSizeByID(uint index, string size) returns (bool success) {\n        if (index > needsCount || !isNeedsZeroPositionInitialized()) {\n            success = false;\n        } else {\n            needs[index].size = size;\n            success = true;\n        }\n    }\n\n    // Offers list helpers\n    // note: offer location must match need location\n    function createOffer(uint ownerid, string ownerName, string materialType, uint quantity, string size, string long, string lat) returns (uint offerID) {\n        /*\n            :uint ownerid: provider's uint id, could funciton as 'primary key'\n            :string ownerName: owner's string name, could funciton as 'primary key'\n            :string materialType: any string value describing resource/material type such as but not limited to 'food', 'blankets', anything - to be catgorized by Wit.ai\n            :uint quantity: any positive integer describing the amount of the materialType\n            :string size: any string describing any possible size - to be categorized by Wit.ai\n            :string long: string represnetation of longitude. format sample - Decimal degrees (DD): 41.40338, 2.17403\n            :string long: string represnetation of lattitude. format sample - Decimal degrees (DD): 41.40338, 2.17403\n            :return: current index value of 'row' about to be added as previously incremented by offersCount\n        */\n        if (offerDoesExist(offersCount) && providerDoesExist(ownerid) && isLatLong(long) && isLatLong(lat)) {\n            revert();\n        }\n        offers[offersCount] = Material(offersCount, ownerid, ownerName, materialType, quantity, size, long, lat);\n        offerID = offersCount;\n        offersCount++;\n    }\n    function getOfferByID(uint index)\n    constant returns (uint id, uint ownerId, string ownerName, string materialType, uint quantity, string size, string long, string lat)\n    {\n        if (index < offersCount) {\n            id = offers[index].id;\n            ownerId = offers[index].ownerId;\n            ownerName = offers[index].ownerName;\n            materialType = offers[index].materialType;\n            quantity = offers[index].quantity;\n            size = offers[index].size;\n            long = offers[index].long;\n            lat = offers[index].lat;\n        }\n    }\n    // if we change ownerid, then we have to change name too since both belong to same owner\n    function updateOfferOwnerIDAndNameByID(uint index, uint ownerid, string ownerName) returns (bool success) {\n        if (index > offersCount || !isOffersZeroPositionInitialized()) {\n            success = false;\n        } else {\n            offers[index].ownerId = ownerid;\n            offers[index].ownerName = ownerName;\n            success = true;\n        }\n    }\n    function updateOfferMaterialTypeByID(uint index, string materialType) returns (bool success) {\n        if (index > offersCount || !isOffersZeroPositionInitialized()) {\n            success = false;\n        } else {\n            offers[index].materialType = materialType;\n            success = true;\n        }\n    }\n    function updateOfferQuantityByID(uint index, uint quantity) returns (bool success) {\n        if (index > offersCount || !isOffersZeroPositionInitialized()) {\n            success = false;\n        } else {\n            offers[index].quantity = quantity;\n            success = true;\n        }\n    }\n    function updateOfferSizeByID(uint index, string size) returns (bool success) {\n        if (index > offersCount || !isOffersZeroPositionInitialized()) {\n            success = false;\n        } else {\n            offers[index].size = size;\n            success = true;\n        }\n    }\n    function updateLatbyOfferID(uint index, string newlat) returns (bool success) {\n        if (index > offersCount || !isLatLong(newlat) || !isOffersZeroPositionInitialized()) {\n            success = false;\n        } else {\n            offers[index].lat = newlat;\n            success = true;\n        }\n    }\n    function updateLongbyOfferID(uint index, string newlong) returns (bool success) {\n        if (index > offersCount || !isLatLong(newlong) || !isOffersZeroPositionInitialized()) {\n            success = false;\n        } else {\n            offers[index].long = newlong;\n            success = true;\n        }    }\n\n    //Provider helpers\n    function createProvider(string name, string location) returns (uint providerID) {\n        /*\n            :string name: provider's string name, could funciton as 'primary key'\n            :string location: any string value describing a place on the globe, ex: Manila, Paris, RUssia\n            :return: current index value of 'row' about to be added as previously incremented by providerCount\n        */\n        if (providerDoesExist(providerCount)) {\n            revert();\n        }\n        providers[providerCount] = Provider(providerCount, name, location);\n        providerID = providerCount;\n        providerCount++;\n    }\n    function getProvidersIntIndexArray() constant returns (uint[] provArray) {\n        uint[] memory arr = new uint[](providerCount);\n        \n        for (uint i = 0;i < providerCount;i++) {\n            arr[i] = i;\n        }\n\n        provArray = arr;\n    }\n    function getProviderById(uint index)\n    constant returns (uint idRet, string name, string location)\n    {\n        /*for (uint8 i = 0; i<providerCount; i++) {//fetches first unique, prevents duplicates but slower\n            if (providers[i].id == id) {\n                idRet = providers[i].id;\n                name = providers[i].name;\n                location = providers[i].location;\n\n                return;\n            }\n        }*/\n\n        if (index < providerCount) {\n            idRet = providers[index].id;\n            name = providers[index].name;\n            location = providers[index].location;\n        }\n    }\n    function updateProviderName(uint index, string name) returns (bool success) {\n        if (index > providerCount || !isProvidersZeroPositionInitialized()) {\n            success = false;\n        } else {\n            providers[index].name = name;\n            success = true;\n        }    }\n    function updateProviderLocation(uint index, string location) returns (bool success) {\n        if (index > providerCount || !isProvidersZeroPositionInitialized()) {\n            success = false;\n        } else {\n            providers[index].location = location;\n            success = true;\n        }    }\n\n    //Recipient helpers\n    function createRecipient(string name, string location) returns (uint recipientID) {\n        /*\n            :string name: recipient's string name, could funciton as 'primary key'\n            :string location: any string value describing a place on the globe, ex: Manila, Paris, RUssia\n            :return: current index value of 'row' about to be added as previously incremented by recipientCount\n        */\n        if (recipientDoesExist(recipientCount)) {\n            revert();\n        }\n\n        recipients[recipientCount] = Recipient(recipientCount, name, location);\n        recipientID = recipientCount;\n        recipientCount++;\n    }\n    function getRecipientById(uint index)\n    constant returns (uint idRet, string name, string location)\n    {\n        if (index < recipientCount) {\n            idRet = recipients[index].id;\n            name = recipients[index].name;\n            location = recipients[index].location;\n        }\n    }\n    function getRecipientsIntIndexArray() constant returns (uint[] recipientArray) {\n        uint[] memory temp = new uint[](recipientCount);\n        \n        for (uint i = 0;i < recipientCount;i++) {\n            temp[i] = i;\n        }\n\n        recipientArray = temp;\n    }\n    function updateRecipientName(uint index, string name) returns (bool success) {\n        if (index > recipientCount || !isRecipientsZeroPositionInitialized()) {\n            success = false;\n        } else {\n            recipients[index].name = name;\n            success = true;\n        }    }\n    function updateRecipientLocation(uint index, string location) returns (bool success) {\n        if (index > recipientCount || !isRecipientsZeroPositionInitialized()) {\n            success = false;\n        } else {\n            recipients[index].location = location;\n            success = true;\n        }    }\n\n    //Tx helpers\n    function createTx(uint id, string provider, string recipient, string location) returns (uint txID) {\n        /*if (txDoesExist(id)) { // not sure why its not working\n            revert();\n        }*/\n        transactions[txCount] = Tx(txCount, provider, recipient, location);\n        txID = txCount;\n        txCount++;\n    }\n    function getTxById(uint index)\n    constant returns (uint idRet, string provider, string recipient, string location)\n    {\n        if (index < txCount) {\n            idRet = transactions[index].id;\n            provider = transactions[index].provider;\n            recipient = transactions[index].recipient;\n            location = transactions[index].location;\n        }\n    }\n    function updateTxProvider(uint index, string provider) returns (bool success) {\n        if (index > txCount || !isTxZeroPositionInitialized()) {\n            success = false;\n        } else {\n            transactions[index].provider = provider;\n            success = true;\n        }    }\n    function updateTxRecipient(uint index, string recipient) returns (bool success) {\n        if (index > txCount || !isTxZeroPositionInitialized()) {\n            success = false;\n        } else {\n            transactions[index].recipient = recipient;\n            success = true;\n        }    }\n    function updateTxLocation(uint index, string location) returns (bool success) {\n        if (index > txCount || !isTxZeroPositionInitialized()) {\n            success = false;\n        } else {\n            transactions[index].location = location;\n            success = true;\n        }    }\n\n\n    // Utility functions\n    function isNeedsZeroPositionInitialized()\n    constant returns (bool isInit)\n    {\n        if (needsCount == 0) {\n            isInit = false;\n        } else {\n            isInit = true;\n        }\n    }\n    function isOffersZeroPositionInitialized()\n    constant returns (bool isInit)\n    {\n        if (offersCount == 0) {\n            isInit = false;\n        } else {\n            isInit = true;\n        }\n    }\n    function isProvidersZeroPositionInitialized()\n    constant returns (bool isInit)\n    {\n        if (providerCount == 0) {\n            isInit = false;\n        } else {\n            isInit = true;\n        }\n    }\n    function isRecipientsZeroPositionInitialized()\n    constant returns (bool isInit)\n    {\n        if (recipientCount == 0) {\n            isInit = false;\n        } else {\n            isInit = true;\n        }\n    }\n    function isTxZeroPositionInitialized()\n    constant returns (bool isInit)\n    {\n        if (txCount == 0) {\n            isInit = false;\n        } else {\n            isInit = true;\n        }\n    }\n    function isLatLong(string input)\n    constant returns (bool islatlong)\n    {\n        /*\n        * simply checks if string contains a period to match longitude, latitude decimal format\n         */\n\n        // efficient?\n        var s = input.toSlice();\n        var delim = \".\".toSlice();\n        var parts = new string[](s.count(delim) + 1);\n        if (parts.length > 1) {\n            return true;\n        }\n        return false;\n    }\n    function createUniqueIDInt()\n    constant returns (uint uniqueIDInt)\n    {\n\n    }\n    function createUniqueIDString()\n    constant returns (string uniqueIDString)\n    {\n\n    }\n    function indexWithinBounds(uint index, uint bound)\n    constant returns (bool inBounds)\n    {\n        //!(recipientID > 0 && recipientID < recipientCount+1)\n        if (index >= bound + 1) {\n            return true;\n        }\n        return false;\n    }\n    function offerDoesExist(uint offerid)\n    constant returns (bool offerExists)\n    {\n        var (id, ownerid, ownerName, materialType, quantity, size, long, lat) = getOfferByID(offerid);\n\n        // checking for valid \"primary keys\" values on data struct - change if storing IPFS hash references\n        if (!indexWithinBounds(id, offersCount) && !indexWithinBounds(ownerid, providerCount) && isEmptyString(ownerName) && isEmptyString(materialType)/* && isLatLong(long) && isLatLong(lat)*/) {\n            return false;\n        }\n        return true;\n    }\n    function needDoesExist(uint needid)\n    constant returns (bool needExists)\n    {\n        var (id, ownerid, ownerName, materialType, quantity, size, long, lat) = getNeedByID(needid);\n\n        // just to get rid of the unused vars error. doesnt affect constant function tx cost - still free\n        quantity = quantity;\n        size = size;\n        long = long;\n        lat = lat;\n\n        // checking for valid \"primary keys\" values on data struct - change if storing IPFS hash references\n        if (!(indexWithinBounds(id, needsCount)) && !(indexWithinBounds(ownerid, providerCount)) && isEmptyString(ownerName) && isEmptyString(materialType)) {\n            return false;\n        }\n        return true;\n    }\n    function providerDoesExist(uint id)\n    constant returns (bool provExists)\n    {\n        var (providerID, name, location) = getProviderById(id);\n        //!(providerID > 0 && providerID < providerCount+1)\n\n        // checking for valid \"primary keys\" values on data struct - change if storing IPFS hash references\n        if (!indexWithinBounds(providerID, providerCount) && isEmptyString(name) && isEmptyString(location)) {\n            return false;\n        }\n        return true;\n    }\n    function recipientDoesExist(uint id)\n    constant returns (bool recExists)\n    {\n        var (recipientID, name, location) = getRecipientById(id);\n\n        // checking for valid \"primary keys\" values on data struct - change if storing IPFS hash references\n        if (!(indexWithinBounds(recipientID, recipientCount)) && isEmptyString(name) && isEmptyString(location)) {\n            return false;\n        }\n        return true;\n    }\n    function txDoesExist(uint id)\n    constant returns (bool txExists)\n    {\n        var (txID, provider, recipient, location) = getTxById(id);\n\n        // checking for valid \"primary keys\" values on data struct - change if storing IPFS hash references\n        // I think i have a logic error here - always returns false.\n        // Oddly, recipientDoesExist and providerdoesExist (same condition) return correct values\n        if (!(txID >= 0 && txID < txCount+1) && isEmptyString(provider) && isEmptyString(recipient) && isEmptyString(location)) {\n            return false;\n        }\n        return true;\n    }\n    function isEmptyString(string input)\n    constant returns (bool empty)\n    {\n        bytes memory tempEmptyStringTest = bytes(input); // Uses memory\n        if (tempEmptyStringTest.length == 0) {\n            return true;\n        } else {\n            return false;\n        }\n    }\n}",
  "sourcePath": "/Users/chris/Documents/Projects/trufflereact/contracts/lifemesh.sol",
  "compiler": {
    "name": "solc",
    "version": "0.4.18+commit.9cf6e910.Emscripten.clang"
  },
  "schemaVersion": "1.0.1",
  "updatedAt": "2017-11-19T04:37:26.754Z"
}