{
  "contractName": "SimpleStorage",
  "abi": [
    {
      "constant": false,
      "inputs": [
        {
          "name": "x",
          "type": "uint256"
        }
      ],
      "name": "set",
      "outputs": [],
      "payable": false,
      "stateMutability": "nonpayable",
      "type": "function"
    },
    {
      "constant": true,
      "inputs": [],
      "name": "get",
      "outputs": [
        {
          "name": "res",
          "type": "uint256"
        }
      ],
      "payable": false,
      "stateMutability": "view",
      "type": "function"
    },
    {
      "constant": true,
      "inputs": [],
      "name": "getDouble",
      "outputs": [
        {
          "name": "res",
          "type": "uint256"
        }
      ],
      "payable": false,
      "stateMutability": "view",
      "type": "function"
    }
  ],
  "bytecode": "0x6060604052341561000f57600080fd5b61010c8061001e6000396000f3006060604052600436106053576000357c0100000000000000000000000000000000000000000000000000000000900463ffffffff16806360fe47b11460585780636d4ce63c146078578063a3f1bd3514609e575b600080fd5b3415606257600080fd5b6076600480803590602001909190505060c4565b005b3415608257600080fd5b608860ce565b6040518082815260200191505060405180910390f35b341560a857600080fd5b60ae60d7565b6040518082815260200191505060405180910390f35b8060008190555050565b60008054905090565b600080549050905600a165627a7a7230582020471e799b82e6358ffa8bf4f4933a2d1b5638a40937d4220572b1e46b556fa10029",
  "source": "pragma solidity ^0.4.11;\n\ncontract SimpleStorage {\n  uint storedData;\n\n  function set(uint x) {\n    storedData = x;\n  }\n\n  function get() constant returns (uint res) {\n    res = storedData;\n  }\n\n  function getDouble() constant returns (uint res) {\n    res = storedData;\n  }\n}\n",
  "sourcePath": "/Users/chris/Projects/trufflereact/contracts/SimpleStorage.sol",
  "compiler": {
    "name": "solc",
    "version": "0.4.19+commit.c4cbbb05.Emscripten.clang"
  },
  "schemaVersion": "2.0.0",
  "updatedAt": "2018-04-08T04:33:29.606Z"
}